:100000000C9475000C949D000C949D000C949D0024
:100010000C949D000C949D000C949D000C949D00EC
:100020000C949D000C949D000C949D000C949D00DC
:100030000C949D000C949D000C949D000C949D00CC
:100040000C94EA030C949D000C94B8030C94920356
:100050000C949D000C949D000C949D000C949D00AC
:100060000C949D000C949D006364696E6F707375B1
:1000700078585B000A4D6F746F722042203A20005E
:100080000A4D6F746F722041203A20000000000872
:10009000000201000003040700000000000000004F
:1000A0000A4F6F6F6F7073203A2000000000002528
:1000B0000028002B0000000000240027002A000474
:1000C00004040404040404020202020202030303FF
:1000D00003030301020408102040800102040810F9
:1000E0002001020408102000950511241FBECFEF47
:1000F000D8E0DEBFCDBF11E0A0E0B1E0EEE6F2E176
:1001000002C005900D92A634B107D9F722E0A6E40B
:10011000B1E001C01D92A031B207E1F710E0C5E7E0
:10012000D0E004C02197FE010E94E405C437D10746
:10013000C9F70E9434040C9435090C94000090E037
:10014000FC01ED52FF4F249181549F4FFC0184919B
:10015000882399F090E0880F991FFC01EB54FF4F22
:10016000A591B491FC01E555FF4F859194918FB70E
:10017000F894EC91E22BEC938FBF0895AF92BF926D
:10018000CF92DF92EF92FF920F931F93CF93DF9363
:100190006C017B018B01040F151FEB015E01AE1892
:1001A000BF08C017D10759F06991D601ED91FC91B4
:1001B0000190F081E02DC6010995892B79F7C501E1
:1001C000DF91CF911F910F91FF90EF90DF90CF9033
:1001D000BF90AF900895FC01538D448D252F30E0E2
:1001E000842F90E0821B930B541710F0CF96089544
:1001F00001970895FC01918D828D981761F0A28D71
:10020000AE0FBF2FB11D5D968C91928D9F5F9F7336
:10021000928F90E008958FEF9FEF0895FC01918DEC
:10022000828D981731F0828DE80FF11D858D90E059
:1002300008958FEF9FEF0895FC01918D228D892FF6
:1002400090E0805C9F4F821B91098F7399270895DE
:1002500083E791E00E941C0121E0892B09F420E052
:10026000822F089580E090E0892B29F00E942801D8
:1002700081110C9400000895FC01A48DA80FB92FE2
:10028000B11DA35ABF4F2C91848D90E001968F73BE
:100290009927848FA689B7892C93A089B1898C91DD
:1002A000837080648C93938D848D981306C002882C
:1002B000F389E02D80818F7D80830895EF92FF92F6
:1002C0000F931F93CF93DF93EC0181E0888F9B8D79
:1002D0008C8D98131AC0E889F989808185FF15C033
:1002E0009FB7F894EE89FF896083E889F989808156
:1002F0008370806480839FBF81E090E0DF91CF9125
:100300001F910F91FF90EF900895F62E0B8D10E046
:100310000F5F1F4F0F731127E02E8C8D8E110CC0B5
:100320000FB607FCFACFE889F989808185FFF5CF00
:10033000CE010E943C01F1CFEB8DEC0FFD2FF11DA2
:10034000E35AFF4FF0829FB7F8940B8FEA89FB893D
:1003500080818062CFCF0F931F93CF93DF938C0167
:10036000D0E0C0E0F801EC0FFD1F6491662341F07E
:1003700083E791E00E945E01892B11F02196F2CF74
:10038000CE01DF91CF911F910F910895CF93DF930D
:10039000EC01888D8823B9F0AA89BB89E889F9899D
:1003A0008C9185FD03C0808186FD0DC00FB607FCD2
:1003B000F7CF8C9185FFF2CF808185FFEDCFCE0105
:1003C0000E943C01E9CFDF91CF91089590E0FC01BC
:1003D000E457FF4F2491FC01ED52FF4F3491FC0193
:1003E000E154FF4FE491EE23C9F0222339F023308A
:1003F00001F1A8F4213019F1223029F1F0E0EE0FDB
:10040000FF1FE555FF4FA591B4918FB7F894EC917C
:10041000611126C030953E233C938FBF089527304D
:10042000A9F02830C9F0243049F7809180008F7DF1
:1004300003C0809180008F7780938000DFCF84B5E8
:100440008F7784BDDBCF84B58F7DFBCF8091B000EB
:100450008F778093B000D2CF8091B0008F7DF9CF9D
:100460003E2BDACF1F93CF93DF93182FEB010E941F
:100470009F00209739F460E0812FDF91CF911F9189
:100480000C94E601CF3FD10511F461E0F5CFE12FE7
:10049000F0E0E457FF4FE491E33031F140F4E13014
:1004A000B1F0E230E1F0C038D1057CF7E4CFE730BD
:1004B00029F1E83059F1E430B1F780918000806291
:1004C00080938000D0938B00C0938A0004C084B5D1
:1004D000806884BDC7BDDF91CF911F91089584B519
:1004E000806284BDC8BDF7CF809180008068809312
:1004F0008000D0938900C0938800EDCF8091B00038
:1005000080688093B000C093B300E5CF8091B000C5
:1005100080628093B000C093B400DDCFFC010190F5
:100520000020E9F73197AF01481B590BBC0183E765
:1005300091E00C94BE008F929F92AF92BF92CF92A7
:10054000DF92EF92FF920F931F93CF93DF93CDB77C
:10055000DEB7A1970FB6F894DEBF0FBECDBF6C011A
:10056000990FEE08FF08F7FE41C06DE283E791E0C6
:100570000E945E018C0122273327A9012C193D0915
:100580004E095F0919A2CE0181967C019AE0892E5D
:10059000912CA12CB12CCA01B901A50194010E9492
:1005A000C205605DF70162937F01211531054105A8
:1005B000510589F790E080E0309719F0CF010E9453
:1005C0008E02800F911FA1960FB6F894DEBF0FBE6A
:1005D000CDBFDF91CF911F910F91FF90EF90DF90F2
:1005E000CF90BF90AF909F908F900895A7019601F4
:1005F00019A28E010F5D1F4F8AE0C82ED12CE12C6D
:10060000F12CCA01B901A70196010E94C205605DE3
:10061000F80162938F01211531054105510589F7D4
:1006200090E080E0309779F2CF010E948E02CBCF2C
:100630000F931F93CF93DF938C01EB0180E890E041
:100640000E94AB01C8010E949B0284E790E00E94D7
:10065000AB01CE010E949B02101611060CF051C096
:1006600061E084E00E94E60160E083E00E94E60130
:10067000C80182509F4F6FEF70E08D3F914040F472
:10068000C80117FF04C088279927801B910BBC0164
:1006900085E00E943202012B41F460E084E00E9478
:1006A000E60160E083E00E94E6011C161D067CF571
:1006B00061E087E00E94E60160E088E00E94E601D8
:1006C000CE0182509F4F6FEF70E08D3F914040F41C
:1006D000CE01D7FF04C0882799278C1B9D0BBC0136
:1006E00086E00E943202CD2BC1F460E087E00E94D8
:1006F000E60160E088E0DF91CF911F910F910C94AB
:10070000E60160E084E00E94E60161E0AECF60E0D7
:1007100087E00E94E60161E0D0CFDF91CF911F9189
:100720000F9108951F920F920FB60F9211242F93DD
:100730003F934F935F936F937F938F939F93AF9369
:10074000BF93EF93FF9383E791E00E943C01FF91F9
:10075000EF91BF91AF919F918F917F916F915F9139
:100760004F913F912F910F900FBE0F901F901895B2
:100770001F920F920FB60F9211242F938F939F9376
:10078000EF93FF93E0918301F09184018081E091E8
:100790008901F0918A0182FD1BC0908180918C01BA
:1007A0008F5F8F7320918D01821741F0E0918C0152
:1007B000F0E0ED58FE4F958F80938C01FF91EF9103
:1007C0009F918F912F910F900FBE0F901F901895B2
:1007D0008081F4CF1F920F920FB60F9211242F93A6
:1007E0003F938F939F93AF93BF9380914B019091D1
:1007F0004C01A0914D01B0914E0130914A0123E08E
:10080000230F2D3758F50196A11DB11D20934A01E4
:1008100080934B0190934C01A0934D01B0934E01F6
:100820008091460190914701A0914801B091490102
:100830000196A11DB11D8093460190934701A0939D
:100840004801B0934901BF91AF919F918F913F9122
:100850002F910F900FBE0F901F90189526E8230F31
:100860000296A11DB11DD2CFCF93DF9300D000D04F
:100870001F92CDB7DEB7789484B5826084BD84B50D
:10088000816084BD85B5826085BD85B5816085BD8B
:1008900080916E00816080936E0010928100809143
:1008A00081008260809381008091810081608093CB
:1008B0008100809180008160809380008091B100F0
:1008C00084608093B1008091B00081608093B0001B
:1008D00080917A00846080937A0080917A008260AF
:1008E00080937A0080917A00816080937A00809171
:1008F0007A00806880937A001092C1008DE00E9497
:100900009F0084E00E949F0083E00E949F0085E09A
:100910000E949F0086E00E949F0087E00E949F0047
:1009200088E00E949F00E0918301F091840182E0C1
:100930008083E0917F01F09180011082E09181013C
:10094000F091820180E1808310928B01E091870118
:10095000F091880186E08083E0918501F091860125
:10096000808180618083E0918501F09186018081A2
:1009700088608083E0918501F091860180818068A4
:100980008083E0918501F091860180818F7D808355
:1009900086E191E00E948E028AE391E00E948E023D
:1009A00061E08DE00E94E6013E0125E0620E711CCF
:1009B000CE0101965C018E010D5F1F4F9DE3E92E74
:1009C00091E0F92E21E5C22E21E0D22E5524539438
:1009D00080E0882E80E0982E83E791E00E941C0141
:1009E0001816190614F583E791E00E94FA00409169
:1009F0007101509172019A012F5F3F4F3093720144
:100A0000209371014F5A5E4FFA0180838A3019F0AA
:100A10002F31310551F42F5A3E4FF90110821092B7
:100A200072011092710150925001809150018823FF
:100A300099F17F926F92BF92AF921F930F93FF92A3
:100A4000EF92DF92CF920E94EA050FB6F894DEBFD4
:100A50000FBECDBF039709F065C08D81833709F0C4
:100A600061C069817A818B819C810E9418032FB7B4
:100A7000F89480914B0190914C01A0914D01B0915F
:100A80004E012FBF8093000190930101A0930201BA
:100A9000B09303011092500180914F018823A1F07F
:100AA00080EA90E00E94AB0181E591E00E948E0215
:100AB00070E060E090E080E00E94180310924F0127
:100AC00060E08DE00E94E6012FB7F89480914B0121
:100AD00090914C01A0914D01B0914E012FBF4091DA
:100AE0000001509101016091020170910301841B8A
:100AF000950BA60BB70B81319742A105B10530F0DC
:100B000070E060E090E080E00E941803811491049E
:100B100009F462CF0E942801882309F45DCF0E9466
:100B2000000056CF50924F01B5CFE3E7F1E01382BA
:100B3000128288EE93E0A0E0B0E084839583A683E0
:100B4000B78388E091E09183808385EC90E095877E
:100B5000848784EC90E09787868780EC90E0918B87
:100B6000808B81EC90E0938B828B82EC90E0958B74
:100B7000848B86EC90E0978B868B118E128E138E71
:100B8000148E0895A1E21A2EAA1BBB1BFD010DC0F5
:100B9000AA1FBB1FEE1FFF1FA217B307E407F5072D
:100BA00020F0A21BB30BE40BF50B661F771F881F09
:100BB000991F1A9469F760957095809590959B019F
:100BC000AC01BD01CF010895EE0FFF1F0590F49118
:100BD000E02D0994AEE0B0E0E0EFF5E00C940E09F2
:100BE00085E08C838B899C899A838983AE01495ED9
:100BF0005F4F6D897E89CE0101960E948E072E96E9
:100C0000E2E00C942A0920FD09C0FC0123FD05C087
:100C100022FF02C07383628351834083089544FDA1
:100C200017C046FD1DC0DB01FC01AA0FBB1FEE1F54
:100C3000FF1F1094D1F76A0F7B1F8E1F9F1F660F37
:100C4000771F881F991F620F711D811D911D0895C7
:100C500033E0660F771F881F991F3150D1F7F3CF0C
:100C600034E0F7CF0F931F93CF93DF938C01C8012C
:100C70000E94A708EC0197FD08C00E949308892BE9
:100C8000B1F7B801CE010E94E308CE01DF91CF9108
:100C90001F910F9108958F929F92AF92BF92EF9202
:100CA000FF920F931F93CF93DF938C01D62F7A017E
:100CB000B22E0E94A7089C0133272B32310529F060
:100CC0002D323105A9F46894B7F8D15061F480E071
:100CD000DF91CF911F910F91FF90EF90BF90AF9058
:100CE0009F908F900895C8010E94A70897FDEFCFAD
:100CF000CB2DCD7F2B2D2073F9F48033E9F4AA247A
:100D0000AA94AD0E89F0C8010E94A70897FD0CC0F7
:100D1000282F2F7D283561F4C264D25029F0C801F4
:100D20000E94A70897FF08C0812C912C54011BC07A
:100D3000B6FE2BC0C260DA2D812C912C540120ED1F
:100D4000280F283028F1C4FD09C02A3008F1C6FF59
:100D500005C02F7D3FEE320F3630C8F0B8010E943B
:100D6000E308C1FFB4CFC7FF08C0B094A09490942B
:100D70008094811C911CA11CB11C2C2FB501A401D5
:100D8000C7010E94030681E0A3CFC261D4CF2750E0
:100D90004C2FC501B4010E940F064B015C01C260DB
:100DA000D15009F3C8010E94A70897FFC8CFD9CF37
:100DB000A0E2B0E0EEEDF6E00C9403095C01962EA3
:100DC0007A01CE0101966C0180E2F60111928A95BA
:100DD000E9F7F501B381890130E020E0712C812C25
:100DE000A0E041E050E0F801B3FD8591B3FF8191AF
:100DF000982F8F01811107C010E000E0C801A09674
:100E0000EDE00C941F098E3519F42115310541F1DF
:100E1000A21713064CF48D3549F18D3229F4811057
:100E200006C0882483941DC0882009F464C0E92F7B
:100E3000E695E695E695EC0DFD2DF11D892F877061
:100E4000BA0101C0660F8A95EAF78081682B60833A
:100E5000791651F0971510F49F5FE9CF9150E7CFC5
:100E6000A1E02F5F3F4FBFCF812CFBCF882019F02F
:100E70008E8180628E83AA2359F0F6019E012F5D38
:100E80003F4F8081809580833196E217F307C9F741
:100E900088248394C5010E94A70897FD16C0E82FF7
:100EA000E695E695E695EC0DFD2DF11D208130E0EF
:100EB000AC014770552702C0359527954A95E2F752
:100EC00020FD06C0B5010E94E308882069F094CF98
:100ED000E114F10429F0F7018083C70101967C0138
:100EE0009A94812C9110D6CFE114F10409F486CFA5
:100EF000F701108283CFE82FE695E695E695EC0D95
:100F0000FD2DF11D982F9770BA0101C0660F9A95BB
:100F1000EAF79081692B6083782EA3CFB0E0A0E040
:100F2000E4E9F7E00C9401096C01EB015A01FC01C2
:100F300017821682512CF601E380FE01E3FC8591B5
:100F4000E3FE8191182FEF018823E9F090E00E94E1
:100F50009308892B21F0C6010E943206ECCF15328E
:100F600041F4FE01E3FC1591E3FE1191EF0115320E
:100F700069F4C6010E94A70897FD8EC01817D9F220
:100F8000B6010E94E308852D90E08AC000E01A3285
:100F900031F4E3FC1591E3FE1191EF0101E0F12C36
:100FA00020ED210F2A3048F101FF37C0FF2059F30F
:100FB0001836B1F11C3609F43DC0112321F3612F1D
:100FC00070E088E690E00E949C08892BE1F2912C69
:100FD000812C00FD06C0F50180809180C50102963C
:100FE0005C011E3679F5F6014681578170E060E0BC
:100FF000202FC4010E9403069ECF02606F2D70E077
:1010000090E080E040E20E940F06F62EFE01E3FC35
:101010001591E3FE1191EF01C3CFFF24FA94C8CFDD
:10102000FE01E3FC1591E3FE1191EF01183609F082
:10103000C4CF08600460FE01E3FC1591E3FE11914A
:10104000EF01BBCF1336C1F401FD02C0FF24F394BE
:10105000C6010E94A70897FD1FC08114910429F0C2
:10106000F4018083C40101964C01FA94F110F0CF91
:1010700000FD61CF53945FCF1B35B9F49E01A401ED
:101080006F2DC6010E94D806EC01892B89F7F60165
:101090008381807309F477CF8FEF9FEF511073CF67
:1010A000CDB7DEB7EFE00C941D09C6010E943206F1
:1010B00097FDF2CF1F36A9F130F4143641F01936FE
:1010C00039F0006405C01337B9F01537D1F7006265
:1010D000202FA4016F2DC6010E944B068111C8CF9D
:1010E000D6CF8114910429F0F4016082C4010196E5
:1010F0004C01FA94FF2071F0C6010E94A7083C0140
:1011000097FD08C00E949308892B59F3B601C301CB
:101110000E94E3088114910409F4AACFF40110821B
:10112000A7CF0061D5CF91110C94FB08803219F044
:1011300089508550C8F70895FC010590061621F0E6
:101140000020D9F7C00108953197CF010895CF93BA
:10115000DF93EC012B8120FF1AC026FF0CC02F7BF0
:101160002B838E819F8101969F838E838A8190E05D
:10117000DF91CF91089522FF18C0E881F981808125
:10118000082E000C990B009729F420622B838FEF17
:101190009FEFEECF3196F983E8832E813F812F5F59
:1011A0003F4F3F832E839927E3CFEA85FB8509953F
:1011B00097FFF3CF2B81019621F080E2822B8B8366
:1011C000E6CF80E1FBCFFB01238120FF11C026FD8C
:1011D0000FC08F3F980771F082832F7D2064238397
:1011E0002681378121503109378326839927089535
:1011F0008FEF9FEF08959927882708952F923F92A8
:101200004F925F926F927F928F929F92AF92BF9216
:10121000CF92DF92EF92FF920F931F93CF93DF93C2
:10122000CDB7DEB7CA1BDB0B0FB6F894DEBF0FBE1F
:10123000CDBF09942A88398848885F846E847D846C
:101240008C849B84AA84B984C884DF80EE80FD806E
:101250000C811B81AA81B981CE0FD11D0FB6F894E4
:0E126000DEBF0FBECDBFED010895F894FFCFA5
:10126E0010270000000000005E01BE00EB00C6016A
:10127E001C01FA000E01456964566773207365728E
:10128E0069616C206D6F746F7220636F6E74726F14
:10129E006C6C65722076302E33000D0A0025642C9E
:0612AE0025642C256300FD
:00000001FF
